{
  "contractName": "Notary",
  "abi": [
    {
      "inputs": [],
      "payable": false,
      "stateMutability": "nonpayable",
      "type": "constructor"
    },
    {
      "constant": false,
      "inputs": [
        {
          "name": "hash",
          "type": "bytes32"
        }
      ],
      "name": "addDocHash",
      "outputs": [],
      "payable": false,
      "stateMutability": "nonpayable",
      "type": "function"
    },
    {
      "constant": false,
      "inputs": [
        {
          "name": "hash",
          "type": "bytes32"
        }
      ],
      "name": "addDocStack",
      "outputs": [],
      "payable": false,
      "stateMutability": "nonpayable",
      "type": "function"
    },
    {
      "constant": true,
      "inputs": [
        {
          "name": "newOwner",
          "type": "address"
        }
      ],
      "name": "returnDocStack",
      "outputs": [
        {
          "name": "",
          "type": "bytes32[]"
        }
      ],
      "payable": false,
      "stateMutability": "view",
      "type": "function"
    },
    {
      "constant": true,
      "inputs": [
        {
          "name": "hash",
          "type": "bytes32"
        },
        {
          "name": "newOwner",
          "type": "address"
        }
      ],
      "name": "findDocHash",
      "outputs": [
        {
          "name": "",
          "type": "uint256"
        },
        {
          "name": "",
          "type": "uint256"
        }
      ],
      "payable": false,
      "stateMutability": "view",
      "type": "function"
    },
    {
      "constant": false,
      "inputs": [
        {
          "name": "hash",
          "type": "bytes32"
        }
      ],
      "name": "deleteDocHash",
      "outputs": [],
      "payable": false,
      "stateMutability": "nonpayable",
      "type": "function"
    },
    {
      "constant": false,
      "inputs": [
        {
          "name": "newOwner",
          "type": "address"
        }
      ],
      "name": "setOwner",
      "outputs": [],
      "payable": false,
      "stateMutability": "nonpayable",
      "type": "function"
    }
  ],
  "bytecode": "0x608060405234801561001057600080fd5b50336000806101000a81548173ffffffffffffffffffffffffffffffffffffffff021916908373ffffffffffffffffffffffffffffffffffffffff160217905550610617806100606000396000f300608060405260043610610078576000357c0100000000000000000000000000000000000000000000000000000000900463ffffffff168063097941b61461007d578063133a48f3146100ae57806313af4035146100df57806389df1ace14610122578063b826d464146101ba578063dacdb89e14610226575b600080fd5b34801561008957600080fd5b506100ac6004803603810190808035600019169060200190929190505050610257565b005b3480156100ba57600080fd5b506100dd60048036038101908080356000191690602001909291905050506102e6565b005b3480156100eb57600080fd5b50610120600480360381019080803573ffffffffffffffffffffffffffffffffffffffff16906020019092919050505061039a565b005b34801561012e57600080fd5b50610163600480360381019080803573ffffffffffffffffffffffffffffffffffffffff1690602001909291905050506103dd565b6040518080602001828103825283818151815260200191508051906020019060200280838360005b838110156101a657808201518184015260208101905061018b565b505050509050019250505060405180910390f35b3480156101c657600080fd5b506102096004803603810190808035600019169060200190929190803573ffffffffffffffffffffffffffffffffffffffff169060200190929190505050610478565b604051808381526020018281526020019250505060405180910390f35b34801561023257600080fd5b50610255600480360381019080803560001916906020019092919050505061053e565b005b600160008060009054906101000a900473ffffffffffffffffffffffffffffffffffffffff1673ffffffffffffffffffffffffffffffffffffffff1673ffffffffffffffffffffffffffffffffffffffff168152602001908152602001600020600082600019166000191681526020019081526020016000206000808201600090556001820160009055505050565b6102ee6105d1565b604080519081016040528042815260200143815250905080600160008060009054906101000a900473ffffffffffffffffffffffffffffffffffffffff1673ffffffffffffffffffffffffffffffffffffffff1673ffffffffffffffffffffffffffffffffffffffff1681526020019081526020016000206000846000191660001916815260200190815260200160002060008201518160000155602082015181600101559050505050565b806000806101000a81548173ffffffffffffffffffffffffffffffffffffffff021916908373ffffffffffffffffffffffffffffffffffffffff16021790555050565b6060600260008373ffffffffffffffffffffffffffffffffffffffff1673ffffffffffffffffffffffffffffffffffffffff16815260200190815260200160002080548060200260200160405190810160405280929190818152602001828054801561046c57602002820191906000526020600020905b81546000191681526020019060010190808311610454575b50505050509050919050565b600080600160008473ffffffffffffffffffffffffffffffffffffffff1673ffffffffffffffffffffffffffffffffffffffff1681526020019081526020016000206000856000191660001916815260200190815260200160002060000154600160008573ffffffffffffffffffffffffffffffffffffffff1673ffffffffffffffffffffffffffffffffffffffff1681526020019081526020016000206000866000191660001916815260200190815260200160002060010154915091509250929050565b600260008060009054906101000a900473ffffffffffffffffffffffffffffffffffffffff1673ffffffffffffffffffffffffffffffffffffffff1673ffffffffffffffffffffffffffffffffffffffff16815260200190815260200160002081908060018154018082558091505090600182039060005260206000200160009091929091909150906000191690555050565b6040805190810160405280600081526020016000815250905600a165627a7a723058203500cbf1fe565b480ff40950ae93e65d4d9a8ef896cd0ed1b273e95322fba5d50029",
  "source": "pragma solidity ^0.4.4;\n\ncontract Notary {\n  \n  struct Record {\n    uint mineTime;\n    uint blockNumber;\n  }\n\n  address private owner;\n  \n  function Notary() public {\n    owner = msg.sender;\n  }\n\n  mapping (address => mapping (bytes32 => Record)) private docHashes;\n  mapping (address => bytes32[]) private docStack;\n\n  function addDocHash (bytes32 hash) public {\n    Record memory newRecord = Record(now, block.number);\n    docHashes[owner][hash] = newRecord;\n  }\n\n  function addDocStack (bytes32 hash) public {\n    docStack[owner].push(hash);\n  }\n\n  function returnDocStack (address newOwner) view public returns (bytes32[]) {\n    return (docStack[newOwner]);\n  }\n\n  function findDocHash (bytes32 hash, address newOwner) public constant returns(uint, uint) {\n    return (docHashes[newOwner][hash].mineTime, docHashes[newOwner][hash].blockNumber);\n  }\n\n  function deleteDocHash (bytes32 hash) public {\n    delete docHashes[owner][hash];\n  }\n  \n  function setOwner(address newOwner) public {\n    owner = newOwner;\n  }\n\n}",
  "sourcePath": "/home/xdsarkar/Desktop/Blockchain_Folders/ClutteredNotary/contracts/Notary.sol",
  "compiler": {
    "name": "solc",
    "version": "0.4.24+commit.e67f0147.Emscripten.clang"
  },
  "schemaVersion": "2.0.1",
  "updatedAt": "2018-07-06T11:20:58.073Z"
}